:020000040800F2
:10000000000001203D350008793400087B340008E9
:100010007D3400087F3400088134000800000000AF
:100020000000000000000000000000008334000811
:100030008534000800000000873400088934000877
:100040008D3500088D3500088D3500088D35000888
:100050008D3500088D3500088D3500088D35000878
:100060008D3500088D3500088D3500088D35000868
:100070008D3500088D3500088D340008993400084E
:10008000A5340008B13400088D3500088D3500080E
:100090008D3500088D3500088D3500088D35000838
:1000A0008D3500088D3500088D3500088D35000828
:1000B0008D3500088D3500088D3500088D35000818
:1000C0008D3500088D3500088D3500088D35000808
:1000D0008D350008BD340008C93400088D3500088E
:1000E0008D3500088D3500088D3500088D350008E8
:1000F0008D3500088D3500088D3500088D350008D8
:100100008D35000800000000000000008D3500085B
:100110008D3500088D3500088D3500088D350008B7
:100120008D3500088D3500088D3500088D350008A7
:100130008D3500088D35000800000000000000002B
:100140008D3500088D3500088D3500080000000051
:10015000000000000000000000000000000000009F
:100160008D3500088D3500088D3500088D35000867
:100170008D3500088D3500088D3500088D35000857
:100180008D3500088D3500080000000000000000DB
:040190008D350008A1
:1001A00010B5054C237833B9044B13B10448AFF3B1
:1001B00000800123237010BDF80100200000000022
:1001C0005467000808B5034B1BB103490348AFF35C
:1001D000008008BD00000000FC01002054670008FA
:1001E000034613F8012B002AFBD1181A0138704777
:1001F00001F0FF01102A2BDB10F0070F08D010F8D8
:10020000013B013A8B422DD010F0070F42B3F6D1DB
:10021000F0B441EA012141EA014122F007047FF0F4
:1002200000070023F0E80256083C85EA010586EA4B
:10023000010685FA47F5A3FA87F586FA47F6A5FA87
:1002400087F68EB9EED1F0BC01F0FF0102F0070293
:1002500032B110F8013B013A83EA010313B1F8D13E
:100260000020704701387047002D06BF354603381F
:10027000073815F0010F07D1013015F4807F02BF58
:10028000013015F4C03F0130F0BC0138704700BFA9
:1002900081F0004102E000BF83F0004330B54FEA37
:1002A00041044FEA430594EA050F08BF90EA020FA4
:1002B0001FBF54EA000C55EA020C7FEA645C7FEA37
:1002C000655C00F0E2804FEA5454D4EB5555B8BF5A
:1002D0006D420CDD2C4480EA020281EA030382EACB
:1002E000000083EA010180EA020281EA0303362D5D
:1002F00088BF30BD11F0004F4FEA01314FF4801C30
:100300004CEA113102D0404261EB410113F0004F41
:100310004FEA03334CEA133302D0524263EB4303F8
:1003200094EA050F00F0A780A4F10104D5F1200E96
:100330000DDB02FA0EFC22FA05F2801841F10001F1
:1003400003FA0EF2801843FA05F359410EE0A5F1C5
:1003500020050EF1200E012A03FA0EFC28BF4CF0F6
:10036000020C43FA05F3C01851EBE37101F00045AC
:1003700007D54FF0000EDCF1000C7EEB00006EEBB9
:100380000101B1F5801F1BD3B1F5001F0CD3490843
:100390005FEA30004FEA3C0C04F101044FEA44529A
:1003A00012F5800F80F09A80BCF1004F08BF5FEA21
:1003B000500C50F1000041EB045141EA050130BD01
:1003C0005FEA4C0C404141EB010111F4801FA4F1A4
:1003D0000104E9D191F0000F04BF01460020B1FAF9
:1003E00081F308BF2033A3F10B03B3F120020CDA31
:1003F0000C3208DD02F1140CC2F10C0201FA0CF00F
:1004000021FA02F10CE002F11402D8BFC2F1200C73
:1004100001FA02F120FA0CFCDCBF41EA0C01904029
:10042000E41AA2BF01EB0451294330BD6FEA040472
:100430001F3C1CDA0C340EDC04F11404C4F120025D
:1004400020FA04F001FA02F340EA030021FA04F36F
:1004500045EA030130BDC4F10C04C4F1200220FAC6
:1004600002F001FA04F340EA0300294630BD21FA04
:1004700004F0294630BD94F0000F83F4801306BFCA
:1004800081F480110134013D4EE77FEA645C18BFBE
:100490007FEA655C29D094EA050F08BF90EA020F55
:1004A00005D054EA000C04BF1946104630BD91EA4D
:1004B000030F1EBF0021002030BD5FEA545C05D150
:1004C0004000494128BF41F0004130BD14F580048F
:1004D0003CBF01F5801130BD01F0004545F0FE4103
:1004E00041F470014FF0000030BD7FEA645C1ABF38
:1004F000194610467FEA655C1CBF0B46024650EA6F
:10050000013406BF52EA033591EA030F41F400219A
:1005100030BD00BF90F0000F04BF0021704730B520
:100520004FF4806404F132044FF000054FF00001F5
:1005300050E700BF90F0000F04BF0021704730B5B6
:100540004FF4806404F1320410F0004548BF40428B
:100550004FF000013EE700BF42004FEAE2014FEAE0
:1005600031014FEA02701FBF12F07F4393F07F4FBB
:1005700081F06051704792F0000F14BF93F07F4FED
:10058000704730B54FF4607401F0004521F0004130
:1005900020E700BF50EA010208BF704730B54FF0B6
:1005A00000050AE050EA010208BF704730B511F0BB
:1005B000004502D5404261EB41014FF4806404F1F3
:1005C00032045FEA915C3FF4DCAE4FF003025FEA75
:1005D000DC0C18BF03325FEADC0C18BF033202EBFD
:1005E000DC02C2F1200300FA03FC20FA02F001FA57
:1005F00003FE40EA0E0021FA02F11444C1E600BFF6
:1006000070B54FF0FF0C4CF4E06C1CEA11541DBFA8
:100610001CEA135594EA0C0F95EA0C0F00F0DEF873
:100620002C4481EA030621EA4C5123EA4C5350EA58
:10063000013518BF52EA033541F4801143F48013A9
:1006400038D0A0FB02CE4FF00005E1FB02E506F03A
:100650000042E0FB03E54FF00006E1FB03569CF08F
:10066000000F18BF4EF0010EA4F1FF04B6F5007F95
:1006700064F5407404D25FEA4E0E6D4146EB060607
:1006800042EAC62141EA55514FEAC52040EA5E5090
:100690004FEACE2EB4F1FD0C88BFBCF5E06F1ED83A
:1006A000BEF1004F08BF5FEA500E50F1000041EB71
:1006B000045170BD06F0004646EA010140EA02001E
:1006C00081EA0301B4EB5C04C2BFD4EB0C0541EA40
:1006D000045170BD41F480114FF0000E013C00F355
:1006E000AB8014F1360FDEBF002001F0004170BD79
:1006F000C4F10004203C35DA0C341BDC04F1140492
:10070000C4F1200500FA05F320FA04F001FA05F21D
:1007100040EA020001F0004221F0004110EBD370EA
:1007200021FA04F642EB06015EEA430E08BF20EA16
:10073000D37070BDC4F10C04C4F1200500FA04F3B9
:1007400020FA05F001FA04F240EA020001F000414B
:1007500010EBD37041F100015EEA430E08BF20EABE
:10076000D37070BDC4F1200500FA05F24EEA020E06
:1007700020FA04F301FA05F243EA020321FA04F035
:1007800001F0004121FA04F220EA020000EBD370EC
:100790005EEA430E08BF20EAD37070BD94F0000FEC
:1007A0000FD101F00046400041EB010111F4801F20
:1007B00008BF013CF7D041EA060195F0000F18BFD1
:1007C000704703F00046520043EB030313F4801F0D
:1007D00008BF013DF7D043EA0603704794EA0C0FC7
:1007E0000CEA135518BF95EA0C0F0CD050EA4106DD
:1007F00018BF52EA4306D1D181EA030101F000415A
:100800004FF0000070BD50EA410606BF1046194681
:1008100052EA430619D094EA0C0F02D150EA01368D
:1008200013D195EA0C0F05D152EA03361CBF1046CE
:1008300019460AD181EA030101F0004141F0FE416D
:1008400041F470014FF0000070BD41F0FE4141F4F1
:10085000780170BD70B54FF0FF0C4CF4E06C1CEAF1
:1008600011541DBF1CEA135594EA0C0F95EA0C0FA6
:1008700000F0A7F8A4EB050481EA030E52EA033561
:100880004FEA013100F088804FEA03334FF0805582
:1008900045EA131343EA12634FEA022245EA1115AF
:1008A00045EA10654FEA00260EF000419D4208BF60
:1008B000964244F1FD0404F5407402D25B084FEA0D
:1008C0003202B61A65EB03055B084FEA32024FF4B9
:1008D00080104FF4002CB6EB020E75EB030E22BF16
:1008E000B61A754640EA0C005B084FEA3202B6EBD6
:1008F000020E75EB030E22BFB61A754640EA5C0085
:100900005B084FEA3202B6EB020E75EB030E22BF14
:10091000B61A754640EA9C005B084FEA3202B6EB15
:10092000020E75EB030E22BFB61A754640EADC00D4
:1009300055EA060E18D04FEA051545EA16754FEA36
:1009400006164FEAC30343EA52734FEAC2025FEA54
:100950001C1CC0D111F4801F0BD141EA00014FF0E3
:1009600000004FF0004CB6E711F4801F04BF0143B4
:100970000020B4F1FD0C88BFBCF5E06F3FF6AFAED0
:10098000B5EB030C04BFB6EB020C5FEA500C50F160
:10099000000041EB045170BD0EF0004E4EEA1131E3
:1009A00014EB5C04C2BFD4EB0C0541EA045170BDEA
:1009B00041F480114FF0000E013C90E645EA060E2E
:1009C0008DE60CEA135594EA0C0F08BF95EA0C0F5C
:1009D0003FF43BAF94EA0C0F0AD150EA01347FF4A4
:1009E00034AF95EA0C0F7FF425AF104619462CE77B
:1009F00095EA0C0F06D152EA03353FF4FDAE1046DE
:100A0000194622E750EA410618BF52EA43067FF42E
:100A1000C5AE50EA41047FF40DAF52EA43057FF4BE
:100A2000EBAE12E74FF0FF3C06E000BF4FF0010CC9
:100A300002E000BF4FF0010C4DF804CD4FEA410C2D
:100A40007FEA6C5C4FEA430C18BF7FEA6C5C1BD0FA
:100A500001B050EA410C0CBF52EA430C91EA030F7B
:100A600002BF90EA020F0020704710F1000F91EAD8
:100A7000030F58BF994208BF90422CBFD8176FEAA6
:100A8000E37040F0010070474FEA410C7FEA6C5C74
:100A900002D150EA013C07D14FEA430C7FEA6C5C7B
:100AA000D6D152EA033CD3D05DF8040B704700BFA7
:100AB0008446104662468C461946634600E000BFF5
:100AC00001B5FFF7B7FF002848BF10F1000F01BDC7
:100AD0004DF808EDFFF7F4FF0CBF012000205DF892
:100AE00008FB00BF4DF808EDFFF7EAFF34BF012017
:100AF00000205DF808FB00BF4DF808EDFFF7E0FFB0
:100B000094BF012000205DF808FB00BF4DF808ED00
:100B1000FFF7CEFF94BF012000205DF808FB00BF67
:100B20004DF808EDFFF7C4FF34BF012000205DF849
:100B300008FB00BF4FEA410C7FEA6C5C02D150EA2F
:100B4000013C0AD14FEA430C7FEA6C5C02D152EAC5
:100B5000033C02D14FF0000070474FF00100704796
:100B60004FEA410212F5001215D211D56FF47873D5
:100B7000B3EB625212D94FEAC12343F0004343EA78
:100B8000505311F0004F23FA02F018BF4042704753
:100B90004FF00000704750EA013005D111F00040DD
:100BA00008BF6FF0004070474FF00000704700BF73
:100BB0004A0011D212F5001211D20DD56FF47873DC
:100BC000B3EB62520ED44FEAC12343F0004343EA31
:100BD000505323FA02F070474FF00000704750EA7C
:100BE000013002D14FF0FF3070474FF000007047E6
:100BF0004FEA4102B2F1E04324BFB3F5001CDCF13F
:100C0000FE5C0DD901F0004C4FEAC0024CEA507076
:100C1000B2F1004F40EB830008BF20F001007047A5
:100C200011F0804F21D113F13872BCBF01F00040A8
:100C3000704741F480114FEA5252C2F11802C2F1DA
:100C4000200C10FA0CF320FA02F018BF40F001005B
:100C50004FEAC1234FEAD32303FA0CFC40EA0C000D
:100C600023FA02F34FEA4303CCE77FEA625307D14A
:100C700050EA01331EBF4FF0FE4040F44000704781
:100C800001F0004040F0FE4040F40000704700BF1B
:100C900038B50E4A0E4B054618784FF47A73B3FBFD
:100CA000F0F31068B0FBF3F000F08CF8044658B98C
:100CB0000F2D09D8024629464FF0FF3000F042F8C8
:100CC000044B20461D6038BD012038BD20000020A7
:100CD0000000002004000020074A08B5136843F014
:100CE00010031360032000F01BF80020FFF7D0FF73
:100CF00002F07CFA002008BD00200240034A044BA9
:100D000011681B780B441360704700BF200200205D
:100D100000000020014B1868704700BF200200202F
:100D2000074AD36823F4E0631B041B0C43F0BF6342
:100D3000000243F4003300F4E0600343D3607047E3
:100D400000ED00E0174B30B5DC68C4F30224C4F1B9
:100D50000703251D042B28BF0423062D4FF0010592
:100D600005FA03F303F1FF338CBF033C0024194061
:100D7000A14005FA04F4013C2240002842EA0102A5
:100D80004FEA0212AFBF00F1604000F00F00064BC7
:100D9000D2B2A5BF00F56140D2B21A5480F8002348
:100DA00030BD00BF00ED00E014ED00E0420901237A
:100DB00000F01F0003FA00F0014B43F822007047D7
:100DC00000E100E00138B0F1807F0AD2064B074A0B
:100DD0005860F02182F823100020072298601A60E2
:100DE00070470120704700BF10E000E000ED00E018
:100DF00001680C4B994210B54FF0140409D80A4A07
:100E00000A44B2FBF4F292000264A3F20743C36304
:100E100010BD064B0B44B3FBF4F39B000364044B7F
:100E2000F5E700BF07040240F8FFFDBFF8FBFDBF78
:100E30000004024038B5044608B30223856880F8F0
:100E40002130436801682B43C5680A682B43056954
:100E50002B4345692B4385692B43C56922F47F5297
:100E600022F030022B4313430B60FFF7C1FF002039
:100E70000123A06384F8213084F8200038BD0120CC
:100E800038BDF0B590F82040012C35D090F82150B5
:100E90000124A54280F820404FF000064FF00204E4
:100EA00028D180F82140046886632668076C26F004
:100EB00001062660C66BBD407560636043680568C7
:100EC000102BC36A0BBFA260A160E160E2604BB16E
:100ED000236843F00E0323602B6843F001032B606B
:100EE0000020F0BD236843F00A032360236823F049
:100EF0000403F0E780F820600220F0BD90F8212084
:100F0000022A10B503D004228263012010BD0268BA
:100F1000C46B1168436B21F00E011160116821F060
:100F200001011160026C012101FA02F262600024E9
:100F300080F8211080F8204013B19847204610BD5A
:100F4000184610BDC16B026C036870B40E681D6852
:100F50000424944026420ED015F0040F0BD01A68DA
:100F600092065EBF1A6822F004021A60C36A4C60DF
:100F700073B370BC184702249440264212D015F077
:100F8000020F0FD01A68950606D41A6822F00A02DA
:100F90001A60012380F8213000234C6080F8203053
:100FA000836AE5E708249440344211D02C070FD51A
:100FB0001C6824F00E041C60012303FA02F24A604C
:100FC000836380F82130002380F82030036BCFE763
:100FD00070BC70472DE9F74FD1F80080DFF8909191
:100FE000614A002338FA03F402D103B0BDE8F08F60
:100FF0004FF0010E0EFA03FE18EA0E0600F0A6806E
:101000004C6824F01007022F16D14FEAD30A00EBE8
:101010008A0A03F0070BDAF820504FEA8B0B4FF0E7
:101020000F0C0CFA0BFC25EA0C0C0D6905FA0BF5FC
:1010300045EA0C05CAF820504FEA430A0325D0F8C8
:1010400000B005FA0AF5ED4304F0030C0BEA050BBA
:101050000CFA0AFC013F4CEA0B0C012FC0F800C04F
:1010600011D8876807EA050BCF6807FA0AFC4CEA33
:101070000B078760476827EA0E0EC4F300179F40EE
:1010800047EA0E074760C7683D408F6807FA0AF7CE
:101090003D43C560E50059D5D9F8185045F0010524
:1010A000C9F81850D9F8185023F0030707F1804702
:1010B00005F0010507F58037019503F0030C019D4C
:1010C000BD684FEA8C0C4FF00F0E0EFA0CFEB0F11B
:1010D000904F25EA0E0E3BD0244DA8423AD005F59C
:1010E0008065A84238D005F58065A84236D005F560
:1010F0008065A84234D005F58065A84232D005F558
:101100008065A84214BF0725062505FA0CF545EAB7
:101110000E05BD601568F74314F4803F0CBF3D40D9
:1011200035431560556814F4003F0CBF3D4035430E
:101130005560956814F4801F0CBF3D4035439560A1
:10114000D568A40254BF3D403543D560013349E71B
:101150000025DAE70125D8E70225D6E70325D4E7FD
:101160000425D2E70525D0E700040140000400482B
:10117000001002400AB18161704781627047436983
:1011800059404161704700002DE9F347054618B901
:10119000012002B0BDE8F0870368DF0711D42B6897
:1011A0009E0700F188802B681C0700F1FC802B68EB
:1011B000580700F14581AA69002A40F0DC8100202F
:1011C000E7E7BD4C636803F00C03042B0AD06368A7
:1011D00003F00C03082B19D1636803F4C033B3F593
:1011E000803F13D14FF4003393FAA3F2216893FAAE
:1011F000A3F3B3FA83F303F01F03012202FA03F30C
:101200000B42CCD06B68002BC9D1C1E76B68B3F53A
:10121000803F1ED1236843F480332360FFF77AFDBB
:101220004FF400368046012796FAA6F3226896FA14
:10123000A6F3B3FA83F303F01F0307FA03F3134291
:10124000ADD1FFF767FDA0EB08006428ECD90320BF
:101250009FE70BBB236823F480332360236823F4C8
:1012600080232360FFF756FD4FF4003680460127A8
:1012700096FAA6F3226896FAA6F3B3FA83F303F07C
:101280001F0307FA03F3134289D0FFF743FDA0EBD6
:1012900008006428ECD9DAE7B3F5A02F236803D15E
:1012A00043F480232360B5E723F48033236023686D
:1012B00023F48023B1E7804C636813F00C0F0AD04D
:1012C000636803F00C03082B25D1636803F4C03373
:1012D000B3F5004F1FD1022393FAA3F2216893FACA
:1012E000A3F3B3FA83F303F01F03012202FA03F31B
:1012F0000B4203D0EB6893427FF44AAF2168F82396
:1013000093FAA3F3B3FA83F22B69934021F0F80226
:101310001343236047E7EA6801260AB396FAA6F367
:10132000B3FA83F303F1845303F584139B0002277C
:101330001E60FFF7EFFC804697FAA7F3226897FA42
:10134000A7F3B3FA83F303F01F0306FA03F3134280
:10135000D4D1FFF7DFFCA0EB08000228ECD976E738
:1013600096FAA6F3B3FA83F303F1845303F58413D7
:101370009B0002271A60FFF7CDFC804697FAA7F37F
:10138000226897FAA7F3B3FA83F303F01F0306FA70
:1013900003F313423FF407AFFFF7BCFCA0EB0800D8
:1013A0000228EBD953E76A69434E444901241AB332
:1013B00094FAA4F3B3FA83F30B449B0002271C6056
:1013C000FFF7A8FC804697FAA7F397FAA7F397FAD6
:1013D000A7F3726A97FAA7F3B3FA83F303F01F0334
:1013E00004FA03F313427FF4E2AEFFF793FCA0EBA1
:1013F00008000228E7D92AE794FAA4F3B3FA83F3A2
:101400000B449B0002271A60FFF784FC804697FA82
:10141000A7F397FAA7F397FAA7F3726A97FAA7F3D5
:10142000B3FA83F303F01F0304FA03F313423FF408
:10143000BEAEFFF76FFCA0EB08000228E7D906E775
:101440001D4CE369D90034D4E36943F08053E36170
:10145000E36903F080530193019B0126184F3B6819
:10146000DA052FD5AB68012B3DD1236A43F0010388
:101470002362FFF74FFC02278246B9464FF001086E
:1014800097FAA7F397FAA7F3002B6CD0226A99FA80
:10149000A9F3B3FA83F303F01F0308FA03F313422B
:1014A00058D0002E3FF487AEE36923F08053E36108
:1014B00081E60026D2E700BF001002402081901094
:1014C000007000403B6843F480733B60FFF722FCF0
:1014D00080463B68DB05C5D4FFF71CFCA0EB080089
:1014E0006428F6D9B3E63BBB236A23F001032362E9
:1014F000236A23F004032362FFF70CFC02278246D1
:10150000B9464FF0010897FAA7F397FAA7F373B318
:10151000226A99FAA9F3B3FA83F303F01F0308FAD6
:1015200003F31342BDD0FFF7F5FB41F28833A0EB84
:101530000A009842E7D98AE6052B236A03D143F0D3
:101540000403236291E723F001032362236A23F05B
:1015500004038DE7FFF7DEFB41F28833A0EB0A00BE
:1015600098428DD973E697FAA7F3626A8FE797FAE4
:10157000A7F3626ACDE7444C636803F00C03082BC1
:101580003FF406AE022A4FF0807358D193FAA3F3CA
:10159000B3FA83F303F1845303F584139B00002211
:1015A0001A60FFF7B7FB4FF000778046012697FAE5
:1015B000A7F3226897FAA7F3B3FA83F303F01F03A4
:1015C00006FA03F3134233D1E36A6A6A23F00F0386
:1015D0001343E36262682B6AE96922F476120B43D3
:1015E000134363604FF0807393FAA3F3B3FA83F36A
:1015F00003F1845303F584139B004FF000751E60C4
:10160000FFF788FB0126074695FAA5F3226895FAAD
:10161000A5F3B3FA83F303F01F0306FA03F31342AF
:101620007FF4CDADFFF776FBC01B0228ECD90EE6A8
:10163000FFF770FBA0EB08000228B8D907E693FA81
:10164000A3F3B3FA83F303F1845303F584139B00EC
:1016500000221A60FFF75EFB4FF000750746012677
:1016600095FAA5F3226895FAA5F3B3FA83F303F08C
:101670001F0306FA03F313423FF4A1ADFFF74AFB41
:10168000C01B0228ECD9E2E50010024011494B686A
:1016900003F00C02082A1AD14FF4701292FAA2F247
:1016A0000F20B2FA82F2C96A90FAA0F0B0FA80F084
:1016B00001F00F0103F47013D340C140064A0748FC
:1016C000415C0748B0FBF1F1D05C484370470448E7
:1016D000704700BF00100240706700088067000874
:1016E00000127A002DE9F0410D46044610B90120A0
:1016F000BDE8F0814C4A136803F007038B422ED3F8
:101700002268910736D4D2073CD4474A136803F0C5
:1017100007039D4275D32268444D12F0040F7CD11B
:10172000130706D56B68226923F4605343EAC203AA
:101730006B60FFF7ABFF6B68F02292FAA2F2B2FA8D
:1017400082F203F0F003D340394AD35CD840394BDE
:1017500018600020FFF79CFA0020BDE8F0811368B4
:1017600023F007030B431360136803F00703994248
:10177000BDD1C5E72D49A0684B6823F0F0030343B2
:101780004B60C0E76268294E012A27D14FF400332D
:1017900093FAA3F1316893FAA3F3B3FA83F303F056
:1017A0001F0302FA03F30B42A1D0736823F0030373
:1017B0001A437260FFF7AEFA41F288380746736841
:1017C000626803F00C03B3EB820F9ED0FFF7A2FA1E
:1017D000C01B4045F3D90320BDE8F081022A0CBFAD
:1017E0004FF00073022393FAA3F1306893FAA3F346
:1017F000B3FA83F303F01F03012101FA03F3034259
:10180000D2E7136823F007032B431360136803F038
:1018100007039D427FF46BAF7DE76B68E16823F4BB
:10182000E0630B436B607BE7002002400010024046
:10183000AD67000820000020084B4FF4E0625B68B1
:1018400092FAA2F2B2FA82F203F4E063D340044ABD
:10185000D35C044A1068D840704700BF00100240B3
:10186000BD67000820000020084B4FF460525B6801
:1018700092FAA2F2B2FA82F203F46053D340044A1D
:10188000D35C044A1068D840704700BF0010024083
:10189000BD6700082000002003682DE9F347DF033F
:1018A000044623D59B4DEB69DE0000F1D780EB6940
:1018B00043F08053EB61EB6903F080530193019B8C
:1018C0000126954F3B68D80540F1CA802B6A13F476
:1018D000407340F0DA802B6A626823F4407313434C
:1018E0002B621EB1EB6923F08053EB612068C307C4
:1018F00006D5884AA168136B23F003030B431363D7
:10190000870706D5834AE168136B23F440330B4302
:101910001363460706D57F4A2169136B23F44023DE
:101920000B431363850606D57A4AE169136B23F0EE
:1019300010030B431363810306D5764A616D536828
:1019400023F480030B435360420606D5714A216A93
:10195000136B23F020030B431363430306D56D4A37
:10196000616A136B23F040030B431363070706D52B
:10197000684A6169136B23F440130B431363C60673
:1019800006D5644AA169136B23F440030B43136328
:10199000850506D55F4A216B536823F400030B438A
:1019A0005360010606D55B4AA16AD36A23F4F87333
:1019B0000B43D362C20506D5564AE16AD36A23F4C3
:1019C00078530B43D362C30406D5524A616B136B41
:1019D00023F480730B431363870406D54D4A216CAF
:1019E000136B23F400730B431363C60206D5494AF5
:1019F000A16B136B23F080730B431363850206D531
:101A0000444AE16B136B23F000730B4313634102F1
:101A100006D5404A616C136B23F480630B43136358
:101A2000020206D53B4AA16C136B23F400630B43FF
:101A30001363C30106D5374AE16C136B23F40053DB
:101A40000B43136310F000701CD0324A216D136BEE
:101A500023F400430B431363002013E0002630E718
:101A60003B6843F480733B60FFF754F980463B6862
:101A7000D9053FF52BAFFFF74DF9A0EB080064281F
:101A8000F5D9032002B0BDE8F087626802F4407225
:101A900093423FF420AF296A4FF4803321F4407021
:101AA00093FAA3F2DFF874E0B2FA82F27244920081
:101AB0000127176093FAA3F3B3FA83F373449B00EF
:101AC00000221A60CA0728627FF505AFFFF722F9E6
:101AD0004FF002088246C14698FAA8F398FAA8F394
:101AE000A3B12A6A99FAA9F3B3FA83F303F01F03A7
:101AF00007FA03F313427FF4EEAEFFF70BF941F25E
:101B00008833A0EB0A009842E6D9BAE798FAA8F31E
:101B10006A6AE7E700100240007000400081901000
:101B200070470000324A0368904212D0B0F1804FF3
:101B30000FD0A2F5943290420BD002F58062904211
:101B400007D002F59632904203D002F5E05290425F
:101B500015D14A6823F070031343254A90421DD0E3
:101B6000B0F1804F1AD0A2F59432904216D002F50F
:101B70008062904212D002F5963290420ED01D4AF9
:101B800090420BD002F58062904207D002F580624D
:101B9000904203D002F50062904203D1CA6823F458
:101BA000407313434A6923F08003134303608B6837
:101BB000C3620B6883620E4B984213D003F5006337
:101BC00098420FD003F5406398420BD003F5806331
:101BD000984207D003F58063984203D003F5006371
:101BE000984201D10B69036301234361704700BF31
:101BF000002C01400040014010B50446A0B190F80F
:101C00003D3003F0FF021BB980F83C2001F00AFBD5
:101C1000022384F83D302068211DFFF783FF012354
:101C200084F83D30002010BD012010BD10B50446E1
:101C3000A0B190F83D3003F0FF021BB980F83C20C2
:101C4000FFF76EFF022384F83D302068211DFFF767
:101C500069FF012384F83D30002010BD012010BD34
:101C6000036A23F001030362036A70B54468826962
:101C70000D6822F4803222F073022A438D6823F02B
:101C800002032B431F4DA84213D005F50065A8425F
:101C90000FD005F54065A8420BD005F58065A84238
:101CA00007D005F58065A84203D005F50065A84278
:101CB00022D1CD6823F008032B43124DA84223F014
:101CC000040313D005F50065A8420FD005F5406563
:101CD000A8420BD005F58065A84207D005F58065C0
:101CE000A84203D005F50065A84205D124F440754B
:101CF0008E694C6934432C43446082614A68426374
:101D0000036270BD002C0140036A23F010030362DC
:101D1000036A70B5446882690D6822F0807222F40B
:101D2000E64242EA05228D6823F0200343EA0513C8
:101D30001A4DA84207D005F50065A84203D005F565
:101D4000E055A8420DD1CD6823F0800343EA051386
:101D5000124DA84223F0400312D005F50065A842B9
:101D60000ED00F4DA8420BD005F58065A84207D0D4
:101D700005F58065A84203D005F50065A84206D1A7
:101D800024F440658E694C69344345EA8404446018
:101D900082614A688263036270BD00BF002C01400B
:101DA00000400140036A23F480730362036A70B544
:101DB0004468C2690D6822F4803222F073022A431B
:101DC0008D6823F4007343EA05231A4DA84207D017
:101DD00005F50065A84203D005F5E055A8420DD1F0
:101DE000CD6823F4006343EA0523124DA84223F48F
:101DF000806312D005F50065A8420ED00E4DA842B2
:101E00000BD005F58065A84207D005F58065A8428E
:101E100003D005F50065A84206D124F440558E692B
:101E20004C69344345EA04144460C2614A68C263A1
:101E3000036270BD002C014000400140036A23F49E
:101E400080530362036A30B54468C2690D6822F0AA
:101E5000807222F4E64242EA05228D6823F40053A0
:101E600043EA0533104DA84213D005F50065A8429A
:101E70000FD005F54065A8420BD005F58065A84256
:101E800007D005F58065A84203D005F50065A84296
:101E900004D14D6924F4804444EA85144460C2614D
:101EA0004A680264036230BD002C014010B58468AA
:101EB0000A4324F47F4442EA03232343836010BD92
:101EC00090F83C30012B70B504464FF002001AD058
:101ED00084F83D002068012384F83C308268524B2E
:101EE000134083600B68402B75D018D8102B00F07E
:101EF0008F8009D8002B00F085800123002084F812
:101F00003D3084F83C0070BD202B00F08780302BE2
:101F1000F3D1836823F0700343F0370333E0702B71
:101F200033D01BD8502B3FD0602BE6D14D68CE6804
:101F3000016A21F0100101628269036A22F4704291
:101F400023F0A00343EA051342EA063282610362EA
:101F5000836823F0700343F0670314E0B3F5805FF8
:101F60000CD0B3F5005FC8D1CB684A688968FFF729
:101F70009DFF2268936843F4804313E0836823F451
:101F8000803323F007038360B7E7CB684A6889682A
:101F9000FFF78CFF2268936823F4803323F07703E4
:101FA00043F077039360A8E74A68CE68016A056A40
:101FB00025F001050562836921F00A0123F0F00391
:101FC00043EA06130A4383610262836823F07003C5
:101FD00043F05703D7E74A68CE68016A056A25F0DF
:101FE00001050562836921F00A0123F0F00343EA49
:101FF00006130A4383610262836823F0700343F08F
:102000004703C0E7836823F0700343F00703BAE790
:10201000836823F0700343F01703B4E7836823F069
:10202000700343F02703AEE78800FEFF036A10B594
:1020300001248C4023EA04030362036A8A401A43A2
:10204000026210BD10B5044601220068FFF7EEFFE2
:102050002368104A934213D002F5006293420FD0D6
:1020600002F5406293420BD002F58062934207D0A2
:1020700002F58062934203D002F50062934203D1DD
:102080005A6C42F400425A641A6842F001021A6023
:10209000002010BD002C0140036A10B504248C40C0
:1020A00023EA04030362036A8A401A43026210BDF2
:1020B000036A23F480330362036A30B54468426DD7
:1020C0000D6822F4803222F070022A438D6823F4D6
:1020D000003343EA0543114DA84213D005F50065CE
:1020E000A8420FD005F54065A8420BD005F58065E4
:1020F000A84207D005F58065A84203D005F5006524
:10210000A84204D14D6924F4803444EA0524446093
:1021100042654A688265036230BD00BF002C014001
:10212000036A23F480130362036A30B54468426D86
:102130000D6822F0807222F4E04242EA05228D68A6
:1021400023F4001343EA0553104DA84213D005F5BC
:102150000065A8420FD005F54065A8420BD005F5F3
:102160008065A84207D005F58065A84203D005F533
:102170000065A84204D14D6924F4802444EA8524F2
:10218000446042654A68C265036230BD002C01406C
:1021900010B5044604220068FFF77EFF23685A6CDE
:1021A00042F400425A641A6842F001021A600020A8
:1021B00010BD38B590F83C30012B04460D464FF069
:1021C000020010D00123082A84F83C3084F83D0036
:1021D00043D009D8FAB1042A2ED00123002084F874
:1021E0003D3084F83C0038BD102A47D0142A56D020
:1021F0000C2AF2D12068FFF721FE23682969DA69E9
:1022000042F40062DA61DA6922F48062DA61DA6942
:1022100042EA012230E02068FFF722FD23682969A5
:102220009A6942F008029A619A6922F004029A615E
:102230009A690A439A61D0E72068FFF765FD236831
:1022400029699A6942F400629A619A6922F480626B
:102250009A619A6942EA0122ECE72068FFF7A2FD41
:1022600023682969DA6942F00802DA61DA6922F042
:102270000402DA61DA690A43DA61AEE72068FFF73F
:1022800017FF236809695A6D42F008025A655A6DB2
:1022900022F004025A655A6D0A435A659DE7206888
:1022A000FFF73EFF236809695A6D42F400625A65E0
:1022B0005A6D22F480625A655A6D42EA0122ECE7B7
:1022C00090F83C30012B30B520D00268104D536897
:1022D0009468AA4207D005F50065AA4203D005F527
:1022E000E055AA4203D14D6823F470032B430D68D7
:1022F000896823F070032B4324F08004536021434A
:102300000023916080F83C30184630BD022030BD7B
:10231000002C014090F83C30012B10B53CD0CB682C
:102320008A681E4C23F4407313434A6823F4806385
:1023300013430A6823F4006313430A6923F48053A8
:1023400013434A6923F4005313438A6A23F4404336
:1023500013438A6923F4702343EA02430268A242CA
:1023600007D004F50064A24203D004F5E054A24271
:102370000CD14C6A23F4700343EA0453CC69096A14
:1023800023F08073234323F000730B435364002333
:1023900080F83C30184610BD022010BD002C0140D2
:1023A00003681A6822F490721A609A6822F0010297
:1023B0009A60202380F86A30704790F86930202BAB
:1023C0001AD1B9B1B2B190F86830012B14D0A0F88D
:1023D0005220C164A0F8502000230168C366212266
:1023E00080F869200A6880F8683042F080020A604C
:1023F000184670470120704702207047134690F836
:102400006A20202A70B5044633D100292FD0002B32
:102410002DD090F86820012A2BD00122002580F8C9
:1024200068202222C5664165A0F8583080F86A20ED
:10243000406E114A26688262104AC262104A0263E4
:1024400045630A4606F12401FEF71BFD236884F864
:1024500068501A6842F480721A609A6842F0010269
:102460009A609A6842F040029A60284670BD012046
:1024700070BD022070BD00BF87240008C32400087F
:10248000CF240008704708B50368426A1B6813F040
:10249000200311D1A2F85A301368196821F4807111
:1024A0001960996821F001019960996821F0400153
:1024B0009960202382F86A30104600F075FC08BD50
:1024C000704708B5406AFFF7FBFF08BD7047416AD7
:1024D00008B591F86930212B0DD10B689A68120666
:1024E00009D50022A1F852201A6822F0C0021A6011
:1024F000202381F8693091F86A30222B09D10B68CA
:102500009B685B0605D50023A1F85A300846FFF703
:1025100047FFCB6E43F01003CB660846FFF7D6FFAC
:1025200008BD08B5406A0023A0F85A30A0F8523020
:10253000FFF7CCFF08BD000038B5044605682169E7
:10254000A268C36928680A4361690A4377491A4344
:1025500001400A432A606A68E168206A22F4405216
:102560000A436A60A968A26921F4306102430A4300
:10257000AA606F4A954212D102F558426D49126B1A
:1025800002F00302B3F5004F8A5C66D0082A19D81E
:10259000DFE802F0C2929E18A9181818AC00664A2B
:1025A000954224D102F5E632126B02F44032B2F5C4
:1025B000803F00F0A08007D8002A00F0AA80B3F581
:1025C000004F76D0012038BDB2F5003F00F0998071
:1025D000B2F5403FF3D1B3F5004F79D160684308BD
:1025E00003F5740303F51053B3FBF0F354E0534ABF
:1025F00095420ED102F5E432126B02F44022B2F59C
:10260000802F78D0D8D9B2F5002F7AD0B2F5402FEC
:10261000E0E74B4A95420ED102F5E232126B02F42A
:102620004012B2F5801F66D0C6D9B2F5001F68D03F
:10263000B2F5401FCEE7434A9542C0D102F5E032E1
:10264000126B02F44002B2F5800F54D0B4D9B2F547
:10265000000F56D0B2F5400FBCE7082A29D801A3D5
:1026600053F822F089260008AD260008DD25000871
:10267000B3260008FD260008B3260008B32600088C
:10268000B326000809270008FFF7D6F861684A0852
:1026900002EB4003B3FBF1F39BB2002023F00F02E7
:1026A0002168C3F342031343CB6038BDFFF7DCF866
:1026B000ECE701200023F1E7FFF7D6F8636800EBB1
:1026C0005300B0FBF3F01A4B80B2D860002038BD45
:1026D0006268530803F5F40303F59053B3FBF2F378
:1026E0009BB2EB60F2E7FEF7D1FF17E06268530898
:1026F00003F50043F2E7B3F5004FF4D1FEF7C6FF50
:10270000C4E7B3F5004FF1D16068430803F58033A7
:102710006AE7B3F5004FB7D0FFF78EF8636800EBB8
:102720005300B0FBF3F080B2E860CFE7F369FFEF4E
:102730000038014090670008004400400048004015
:10274000004C004000500040436ADA0710B506D53F
:102750000168846A4A6822F4003222434A609C0776
:1027600006D50168C46A4A6822F4803222434A606E
:10277000590706D50168046B4A6822F48022224377
:102780004A601A0706D50168446B4A6822F4004281
:1027900022434A60DC0606D50168846B8A6822F40D
:1027A000805222438A60990606D50168C46B8A6804
:1027B00022F4005222438A605A060FD50168046C45
:1027C0004A6822F480122243B4F5801F4A6005D182
:1027D0004A68446C22F4C00222434A601B0606D5B4
:1027E0000268816C536823F400230B43536010BDCF
:1027F0002DE9F041069D04460F461646984621688D
:10280000CA6937EA02030CBF01220022B24202D099
:102810000020BDE8F0816B1CF2D09DB923681A68D6
:1028200022F4D0721A609A6822F001029A60202382
:1028300084F8693084F86A30002384F86830032013
:10284000BDE8F081FEF766FAA0EB08008542D6D21B
:10285000E4E773B504460026C666FEF75BFA236814
:102860001B681A07054617D423681B685B070AD53F
:102870006FF07E43009300222B464FF480012046E8
:10288000FFF7B6FFA0B92023002084F8693084F850
:10289000680084F86A300CE06FF07E4300933246A3
:1028A00003464FF400112046FFF7A2FF0028DBD0BB
:1028B000032002B070BD10B5044660B390F86930D3
:1028C00003F0FF021BB980F8682000F00DFD2268BC
:1028D000242384F86930136823F001031360204631
:1028E000FFF72AFE012816D0636A13B12046FFF7CE
:1028F0002BFF23685A6822F490425A609A6822F0AB
:102900002A029A601A6842F0010220461A60BDE865
:102910001040FFF79EBF012010BD90F86930212BB9
:1029200027D1B0F8523002689BB24BB9116821F040
:1029300080011160116841F0400111600020704772
:102940008368B3F5805FC36C0ED1016961B933F858
:10295000021BC1F308011185C364B0F85230013B7A
:102960009BB2A0F85230E9E7591CC1641B7813856B
:10297000F3E702207047016808B50B6823F04003B5
:102980000B60202380F86930FFF77CFD002008BD34
:1029900090F86A30222B10B5036829D1998C83688E
:1029A000B0F85C20B3F5805F02EA0102436D1BD1F1
:1029B0000169C9B923F8022B4365B0F85A40013CBC
:1029C000A4B2A0F85A406CB903681A6822F4907255
:1029D0001A609A6822F001029A60202380F86A3017
:1029E00000F0E2F9002010BD591C41651A70E4E7BF
:1029F0009A6942F008029A61022010BD0268D36908
:102A0000116870B513F00F05044607D19E0605D571
:102A10008E0603D5BDE87040FFF7BABF9068002D61
:102A20005CD010F0010502D111F4907F56D0D80788
:102A300007D5CE0505D501201062E06E40F00100FB
:102A4000E066980706D52DB102201062E06E40F0D6
:102A50000400E0665E0706D52DB104201062E06E2A
:102A600040F00200E066180707D58E0600D425B1B5
:102A700008201062E26E0243E266E26E002A50D045
:102A8000980604D58A0602D52046FFF781FFE36E3B
:102A90001B07204604D423689D6815F0400519D013
:102AA000FFF77EFC23689A6856060FD59A68606E19
:102AB00022F040029A6048B11A4B4363FEF71EFAB7
:102AC00078B3606EBDE87040436B18472046FFF74F
:102AD000FDFC70BDFFF7FAFCE56670BDDD020ED5AA
:102AE00046020CD54FF480131362202384F869301A
:102AF000204684F86A30BDE8704000F015B81D0625
:102B000006D5080604D52046BDE87040FFF705BF8E
:102B10005A0606D54B0604D52046BDE87040FFF79F
:102B20002ABF70BD232500087047000038B5054650
:102B30000C4651EC100BFEF75BF8DFED130A00EECC
:102B4000100A00F089FDDFED117A2A6820EE270ACD
:102B5000FDEEC07A17EE903A14B9C2ED0D7A38BD89
:102B6000042C02D1C2ED0E7A38BD082C02D1C2ED80
:102B70000F7A38BD0C2C02D1C2ED107A38BD102C62
:102B80000CBF9365D36538BDCDCC0C40003C1C46D2
:102B90002DE9F04F55EC104B9BB00022604B10EE2E
:102BA000100A29468DED042B8DED101BFDF7AEFFAD
:102BB00008B100240025DDE91023DDE90401FDF75B
:102BC0001FFD002206460F46564B20462946FDF7BC
:102BD00041FE9FED4F1B41EC100BCDE9060100F0CB
:102BE000D7FC002251EC100B4F4BFDF755FB024672
:102BF00021F0004300204C49FDF74EFB32463B4696
:102C0000FDF7FEFC3B46804689463246DDE904017D
:102C1000FDF742FB04460D46DDE90601FDF7A0FF86
:102C2000052818D8DFE800F003202D424F64224623
:102C30002B4630463946FDF731FB224682468B460D
:102C40002B4640464946FDF729FB9FED337BCDE9F6
:102C500000018DED027B9DED001B9DED022B4BECE9
:102C600010AB1BB0BDE8F08F22462B4640464946CC
:102C7000FDF714FB224682468B462B4630463946EA
:102C8000E1E722462B4630463946FDF707FB224650
:102C9000CDE900012B4640464946FDF7FFFA4FF0CB
:102CA000000ACDE902014FF0000BD4E722462B4683
:102CB00040464946FDF7F2FA2246CDE900012B468F
:102CC00030463946E9E722462B4640464946FDF75D
:102CD000E5FA224682468B462B4630463946FDF7BA
:102CE000DDFA9FED0D7BCDE902018DED007BB2E7B2
:102CF00022462B4630463946FDF7D0FA2246824618
:102D00008B462B4640464946E9E700BFAFF30080BB
:102D10000000000000000040000000000000000073
:102D20000080764000004E400000F03F10B52DEDD1
:102D3000068B8CB0FFF72CFF164C1748B0EE419A6B
:102D4000F0EE619A0821B0EE428AF0EE628AB0EEAF
:102D500040AAF0EE60AAFFF7E9FEB0EE490AF0EEF5
:102D6000690A20460421FFF7E1FEB0EE480AF0EEC2
:102D7000680A00212046FFF7D9FE084B83ED00AB1F
:102D8000074B83ED009B074B83ED008B0CB0BDEC34
:102D9000068B10BD740200201004002018000020D3
:102DA000100000200800002030B520218BB04FF02B
:102DB0009040FEF7E4F91F481F4C01F0F9FA1F4B51
:102DC00051EC100B83ED000B00221D4BFDF742FD73
:102DD00000221C4BFDF760FA0B4602461A49684672
:102DE000C4E9002301F01AFB694682B21748FFF7D5
:102DF000E4FAD4E90045164B002220462946FDF7A7
:102E000085FE144B80B9C3E9004593ED000B93EDAB
:102E1000021B93ED042BFFF789FF062205490B489F
:102E2000FFF7ECFA0BB030BD00200021C3E9000130
:102E3000EBE700BF28020020F0030020C0040020C0
:102E40000000594000408F40946700088003002034
:102E500000807640F803002030B5A7B0282200217A
:102E600006A801F0D3FA1422002101A801F0CEFA3D
:102E70005822002110A801F0C9FA01230993102358
:102E80000A934FF4004302250D9306A84FF4E01374
:102E90000E9306950C95FEF777F90F230024019306
:102EA00029464FF4806301A8049302950394059486
:102EB000FEF718FC054B109310A81294139420945D
:102EC0001E94FEF7E9FC27B030BD00BF03201000C0
:102ED0002DE98048B44DB54EA1B0FDF7FDFEFFF7DA
:102EE000BBFF1422002115A801F090FA6B6943F48E
:102EF00000236B616B6903F400230393039B6B69ED
:102F000043F480036B616B6903F480030493049BB7
:102F10006B6943F400336B616B6903F40033059311
:102F2000059B6B6943F480236B616B6903F4802319
:102F30000022069320214FF0904000244FF40058C7
:102F4000069BFEF717F99A4B9A48CDF8548015A9BD
:102F500016931794FEF73EF82023159315A9012325
:102F60004FF09040169317941894FEF733F86B695E
:102F700043F001036B616B698F4D03F0010322463F
:102F8000214602930E20029BFDF7DCFE0E20FDF78A
:102F90000DFF224621460F20FDF7D4FE0F20FDF73E
:102FA00005FF224621461020FDF7CCFE1020FDF73C
:102FB000FDFE224621461120FDF7C4FE1120FDF73B
:102FC000F5FE7E487E4B84604FF4165780E88800FB
:102FD0000C234361C46004618461C461046244627F
:102FE000FFF769FC102221460EA801F00FFA1C22FF
:102FF000214615A80A940B940C9401F007FA4FF09F
:103000008043336042F20F7B11233046736001939B
:103010004FF4805AB460C6F80CB03461B461FEF766
:10302000EBFD0EA93046CDF838A0FEF749FF30463B
:10303000FEF7FCFD0AA930460A940C94FFF740F90C
:1030400002224FF0600915A9179230460822CDF8E8
:10305000549016941994FFF7ACF8304600F006F936
:10306000102221460AA801F0D1F91C2221460EA8FF
:1030700007940894099401F0C9F921462C2215A857
:1030800001F0C4F9019B4F4A6B6028462A60AC608E
:10309000C5F80CB02C616C61AC61FEF7ADFD0AA9FE
:1030A0002846CDF828A0FEF70BFF2846FEF7BEFD08
:1030B00007A92846079408940994FFF701F9CDF869
:1030C000389022464FF008090EA928460F94109414
:1030D000CDF84490129413941494FFF76AF80422E4
:1030E0000EA92846FFF765F84FF0007315A928468A
:1030F0001D93CDF86880159416941794189419941C
:103100001B941C941E941F94FFF704F9284600F0AA
:10311000ADF8DFF8D0802C4BC8F8084088E888006C
:1031200040460C23C8F81430C8F80C40C8F81040CA
:10313000C8F81840C8F81C40C8F82040C8F8244017
:10314000FFF7B9FB062221494046FFF757F9214610
:103150002846FFF71DF804212846FFF719F84946CD
:103160003046FEF76FFF1A4B494693ED000B304691
:10317000FFF7DCFC174B042193ED000B2846FFF70B
:10318000D5FC154B214693ED000B2846FFF7CEFCEE
:10319000124B13490020C3E90201C3E904010020D6
:1031A0000021C3E90001FEE70010024010040020E6
:1031B0000000211000080048740200205004002084
:1031C0000044004000340140003801402802002043
:1031D000180000201000002008000020F803002044
:1031E0000000F03F80030020704700000C4B07B543
:1031F0009A6942F001029A619A6902F00102009212
:10320000009ADA6942F08052DA61DB6903F0805398
:1032100001930720019BFDF783FD03B05DF804FBDC
:10322000001002400368B3F1804F82B00CD103F567
:103230000433DA6942F00102DA61DB6903F0010369
:103240000093009B02B07047064A9342FAD1064BA6
:103250009A6942F400529A619B6903F40053019306
:10326000019BEFE7003401400010024010B5044616
:1032700088B01422002103A801F0C8F82368B3F134
:10328000804F17D103F504335A6942F480225A6102
:103290005B6903F480230193019B4FF480630393E4
:1032A00002230493012303A90C480793FDF792FE20
:1032B00008B010BD0A4A9342FAD10A4B5A6942F447
:1032C00080225A615B6903F480230293029B1823D6
:1032D0000393022304930423E5E700BF000400489E
:1032E000003401400010024030B514228BB0054676
:1032F00000210DEB020001F089F82B68524A93423D
:1033000051D1524B524C9A69524842F480429A61D0
:103310009A6902F480420192019A5A6942F40022A9
:103320005A615B6903F400230293029B30230593E7
:10333000022306930323089305A907230993FDF7A6
:1033400049FE454B23608022002320466360A36032
:10335000E26023616361A361E361FDF76BFD08B186
:10336000FFF742FF6C6665623C493D4C102384E8E0
:103370000A00802200232046A360E260236163618B
:10338000A361E361FDF756FD08B1FFF72DFF0022B1
:1033900025202C6611466562FDF7D4FC2520FDF73B
:1033A00005FD0BB030BD2F4A9342FAD1274B2E4C6E
:1033B000DA6942F40032DA61DA6902F40032039227
:1033C000039A5A6942F400325A615B6903F400338C
:1033D0000493049B0C230593022306934FF0904023
:1033E000072305A90993FDF7F5FD204B23608022F3
:1033F000002320466360A360E26023616361A361F0
:10340000E361FDF717FD08B1FFF7EEFE184A6C66A1
:103410006562184C102384E80C00204600238022AB
:10342000A360E26023616361A361E361FDF702FDD4
:1034300008B1FFF7D9FE002226202C6611466562EE
:10344000FDF780FC2620AAE700380140001002406A
:10345000F8020020000800485800024044000240E2
:10346000B402002000440040300200206C00024002
:10347000800002403C0300207047FEE7FEE7FEE7C5
:10348000FEE7704770477047FDF738BC0148FDF70D
:1034900059BD00BFB40200200148FDF753BD00BF75
:1034A000F80200200148FDF74DBD00BF30020020AA
:1034B0000148FDF747BD00BF3C0300200148FFF76E
:1034C0009DBA00BF800300200148FFF797BA00BFF4
:1034D000500400201549D1F8883043F47003C1F836
:1034E0008830134B1A6842F001021A605868114A7A
:1034F00002405A601A6822F0847222F480321A6004
:103500001A6822F480221A605A6822F4FE025A6075
:10351000DA6A22F00F02DA62186B074A02401A6375
:1035200000229A604FF000638B60704700ED00E06E
:10353000001002400CC07FF8CCFC00FFDFF834D054
:10354000002103E00C4B5B58435004310B480C4BFB
:1035500042189A42F6D30B4A02E0002342F8043B99
:10356000094B9A42F9D3FFF7B5FF00F02BFFFFF7A5
:10357000AFFCFEE700000120B06A00080000002058
:10358000F8010020F8010020CC040020FEE7000034
:103590002DE9F0432DED028B8BB055EC104B57EC21
:1035A000116B00F0D5F92A4BB0EE408AF0EE608A3C
:1035B00093F90080B8F1FF3F30D032463B463046A9
:1035C0003946FDF7B7FA48BB22462B462046294626
:1035D000FDF7B0FA814608BB002200233046394689
:1035E000FDF776FAD0B1012300931A4B0193CDE990
:1035F0000245CDE90467CDF82090B8F1000F16D14F
:10360000CDE90645684600F0C4FDD8B1089B1BB162
:1036100000F0D2FE089B03609DED068BB0EE480AD9
:10362000F0EE680A0BB0BDEC028BBDE8F08300221F
:10363000002310461946FDF70DF9B8F1020FCDE948
:103640000601DFD100F0B8FE21230360DEE700BFF2
:1036500024000020C567000870B52DED048BB54C23
:103660008AB0F0EE408AB0EE608A00F089FA94F9F0
:1036700000506B1CB0EE409A26465DD0B4EE488AEE
:10368000F1EE10FA58D6F4EE688AF1EE10FA21D76E
:10369000B5EE408AF1EE10FA4ED101230093A64B0D
:1036A000019318EE900A00230893FCF755FFCDE92B
:1036B000020118EE100AFCF74FFFA04B0022022D6A
:1036C000CDE90401CDE9062330D0684600F061FD64
:1036D00030BB62E0F5EE408AF1EE10FA62D1B5EE51
:1036E000408AF1EE10FA2DD101230093924B019301
:1036F00018EE900A00230893FCF72EFFCDE9020193
:1037000018EE100AFCF728FF00220023CDE904017F
:10371000CDE90623002DD8D0884B0022CDE9062321
:10372000089B1BB100F048FE089B0360DDE9060121
:10373000FDF75EFA09EE100AB0EE490A0AB0BDECD8
:10374000048B70BDB0EE480A00F0B5FD0028F3D040
:10375000B5EEC08AF1EE10FAEED501230093764B58
:10376000019318EE900A00230893FCF7F5FECDE9CB
:10377000020118EE100AFCF7EFFE94F90030CDE9D3
:10378000040123B900220023CDE906239DE76C49FB
:103790000020CDE90601022B97D100F00DFE212378
:1037A0000360BDE700F087FD0546002840F09180EA
:1037B000B0EE680A00F07FFD002800F08A80B0EECD
:1037C000480A00F078FD002800F08380B4EE499AA2
:1037D000F1EE10FA94F90040574B1BD7012218EE76
:1037E000900A8DE80C000895FCF7B6FECDE90201C1
:1037F00018EE100AFCF7B0FE0022CDE90401002308
:10380000002CC1D010461946FDF724F8022CCDE952
:103810000601C1E7032218EE900A8DE80C00089516
:10382000FCF79AFECDE9020118EE100AFCF794FEAF
:10383000CDE904015CBB434BF5EEC08A4FF060421A
:10384000F1EE10FACDE906236CD5F6EE007A68EEBB
:10385000277A17EE900AFCF77FFE04460D4645ECEA
:10386000104B00F099FC204653EC102B2946FDF735
:103870002FF920B9344B4FF06042CDE9062396F979
:103880000030022B4ED100F097FD222388E72F4B0A
:10389000F5EEC08A0022F1EE10FACDE90623EED54E
:1038A000F6EE007A68EE277A17EE900AFCF754FEDF
:1038B00004460D4645EC104B00F06EFC204653ECE0
:1038C000102B2946FDF704F90028D8D100221C4B03
:1038D000D3E7B5EE409AF1EE10FA7FF42DAFB0EEDB
:1038E000680A00F0E8FC00283FF426AFB0EE480A72
:1038F00000F0E1FC00283FF41FAF042300930E4BBF
:10390000019318EE900A00230893FCF725FECDE9F9
:10391000020118EE100AFCF71FFE0022CDE9040197
:103920000023AAE7684600F034FC00287FF4F8AED4
:10393000A9E700BF24000020CA6700080000F03F8C
:103940000000F0FFFFFFEF47FFFFEFC70000F07F31
:103950002DE9F84F53EC112B57EC106B23F0004E70
:1039600052EA0E0510EE109A394610EE104A11EE8A
:1039700010CA184611EE108A0CD07A4D27F0004A72
:10398000AA4507DC55421543DFF8F0B14EEAD5757C
:103990005D450DD930463946FCF732FE02460B46EE
:1039A000FCF758FF06460F4647EC106BBDE8F88F52
:1039B000F24507F000450ADCF6DB9642F4D306D167
:1039C000694AED0F02EBC505D5E90067ECE7674BE7
:1039D0009A4548DCBAF1000F3CD1654E4A46002AB0
:1039E00035DC9E4550DCBEF1000F44D1604A634691
:1039F000002B3DDC5F4B9E424BDBC1F3130343F4D2
:103A000080135C498A4258DBC0F3130040F48010F5
:103A1000B61A191A002E67D1444538BF01F1FF319B
:103A20000029A4BFA4EB08040B4653EA0401C7D045
:103A30004E498B426EDD4F498A4271DBA3F58013FC
:103A40001D4302F2FF3245EA02572646ACE7013E2B
:103A50005200C4E7474E4FEACA225200002A06F13C
:103A6000FF36FADCBDE74FEA2A56A6F2FF36B8E782
:103A7000013A5B00BCE73F4A4FEACE235B00002BD4
:103A800002F1FF32FADCB5E74FEA2E52A2F2FF3222
:103A9000B0E79C1B1F2C0ADCC4F120030AFA04FACD
:103AA00029FA03F343EA0A0309FA04F4A9E7324BBB
:103AB0009B1B09FA03F30024A3E7A1EB0208B8F16A
:103AC0001F0F0ADCC8F120000EFA08FE2CFA00F0E5
:103AD00040EA0E000CFA08F89AE72748801A0CFA18
:103AE00000F04FF0000893E7444538BF01F1FF3183
:103AF000002905DAE10F01EB43036400013E88E78A
:103B0000A4EB080451EA04033FF45AAFE30F03EBBC
:103B10004103F2E7E00F00EB43036400013A88E75A
:103B2000891A14290ADCC1F1200203FA02F2CC40FE
:103B300022430B4143EA0507164635E71F2907DCF8
:103B400024FA01F2C1F120018B401A432B46F1E720
:103B5000C2F17F4202F57F0202F57B42E23243FA74
:103B600002F2F3E7FFFFEF7FD0670008FFFF0F00CF
:103B7000EDFBFFFF02FCFFFFE2FBFFFF0000F07F19
:103B80002DE9F04110EE905A35F000472DED028BF3
:103B9000B0EE408AF0EE608A00F0958210EE108A56
:103BA00028F00044B4F1FF4F06DCB7F1FF4F0ADD07
:103BB000B4F17E5F00F08782BDEC028BD948BDE88E
:103BC000F04100F083BBB8F1000F1DDAB7F1974F59
:103BD0002CDAB7F17E5F30DBFB15C3F1960347FAB1
:103BE00003F606FA03F39F4227D106F00106C6F159
:103BF0000206B7F17E5F22D1002D80F26A82F7EED5
:103C0000007A87EE880A0DE00026B7F1FF4FF0D169
:103C1000B4F17E5F00F057820ADD002D80F25682FB
:103C20009FEDC10ABDEC028BBDE8F0810226ECE7F6
:103C3000002DF5DAB1EE680AF4E70026D9E7B5F110
:103C4000804F02D128EE080AECE7B5F17C5FB0EEB8
:103C5000480A08D1B8F1000F05DBBDEC028BBDE8C6
:103C6000F04100F04FBA00F01FFB24B128F04043B0
:103C7000B3F17E5F17D1002DBCBFF7EE007A87EE5F
:103C8000800AB8F1000FCDDAA4F17E5454EA06039D
:103C900004D170EE407A87EEA70AC3E7012EC1D1A6
:103CA000B1EE400ABEE74FEAD870013856EA000389
:103CB00004D138EE488A88EE080AB3E7B7F19A4F84
:103CC0006DDD9A4B9C4206DC002DA9DA9FED980A27
:103CD00020EE000AA6E7974B9C4202DD002DF5DCA2
:103CE0009EE7F7EE007A30EE670A9FED937A9FED3C
:103CF000936AF1EE406AF5EE007AA6EEA77AF6EE48
:103D0000007AE6EE877A20EE007A27EE877ADFEDFA
:103D10008C7A67EEC77A9FED8B7AE0EE077AB0EE89
:103D2000677AA0EE067A17EE103A23F47F6323F049
:103D30000F0307EE103AA6EE867A77EEC77A25F4DF
:103D40007F6525F00F0507EE105A67EEA87A78EE2A
:103D5000C78A07EE103A06EE905AE7EE287A013E3F
:103D600056EA000227EE267ABFEE000A77EE876A4F
:103D7000B7EE008A16EE904A08BFB0EE408A002CDB
:103D800024F0004340F38681B3F1864F40F3FC807A
:103D9000DFED677A28EE270A20EE270A42E7B4F51E
:103DA000000FBFBFDFED687A60EE277A6FF0170271
:103DB00017EE904A4FEAE453A8BF00227F3B13441A
:103DC000624AC4F31604944244F07E5106DD604A10
:103DD000944240F3A5800133A1F5000100245D4A1F
:103DE000A7003A4407EE901A92ED007A5A4A77EE0D
:103DF000876AF7EE005A85EEA65A491041F0005145
:103E000001F5802101EB445137EEC76A06EE901AA6
:103E100066EE054A14EE90EA02EA0E0E05EE90EA0E
:103E2000B1EE654AA4EE266A76EEC76A35EEA47A4C
:103E300077EEE66ADFED497AA4EE266A66EE056A59
:103E400024EEA46A9FED465AE6EE057A9FED455AA8
:103E5000A6EE275ADFED387AE6EE057A9FED425A54
:103E6000A6EE275ADFED417AE6EE057A66EE063ACF
:103E7000B0EE085A27EE267AB0EE456AA3EEA77A8E
:103E8000A5EEA56A36EE076A16EE101A114006EE88
:103E9000101A76EE457A9FED365AE4EE257A77EEE3
:103EA000677A67EEA47AE6EE267AB0EE677AA5EE38
:103EB000867A17EE101A114007EE101AA4EE067A51
:103EC00005EE901A77EEC77A9FED2A7A2A4967EEB7
:103ED000877A9FED2A7AE5EE877A394491ED007A68
:103EE00037EE877A07EE903AB0EE476A244BA5EE9C
:103EF000856A3B44D3ED004AF8EEE76A36EE246A61
:103F000076EE267A17EE903A134007EE903A77EE67
:103F1000E67A77EEE47AE5EEC57A77EE677A0EE731
:103F200001245CE7AC67000800000000F7FF7F3F5A
:103F3000CAF249710700803FABAAAA3E00AAB83F67
:103F40003BAAB83F70A5EC360000804B71C41C0042
:103F5000D6B35D00E067000800F0FFFF55326C3E0D
:103F600042F1533E05A38B3EB76DDB3E9A99193F54
:103F70000038763F4F38763FF0670008A0C39D3683
:103F8000E86700083CAA383340F094801FED036ACC
:103F900076EEC76A37EE866AB4EEE66AF1EE10FA9C
:103FA0003FF7F6AEDB15A3F17E004FF400030341AB
:103FB0002344C3F3C75248497F3A114123EA010120
:103FC000C3F3160006EE901A40F40000C2F1170287
:103FD0001041002C37EE667AB8BF404277EE276A70
:103FE0009FED3E6A16EE903A23F47F6323F00F03B1
:103FF00006EE903A36EEC77A77EEC77A9FED387ABA
:1040000026EE877AA7EE867AF0EE477A9FED357A2C
:10401000B0EE670AA6EE870AB0EE406AA6EEC76A5F
:1040200020EE007A77EEC67ADFED2F6A9FED2F6AD9
:10403000A7EE266ADFED2E6AE7EE066A9FED2D6A8F
:10404000A7EE266ADFED2C6AE7EE066AB0EE406A5C
:10405000A7EE666AF0EE006AB0EE467A77EE666A20
:1040600020EE066AE0EE277A86EE267A77EE677A09
:1040700037EEC00AF7EE007A37EEC00A10EE103ABB
:1040800003EBC053B3F5000F1ADA00F025F920EE68
:10409000080AC7E5194A934202DDDFED197A79E68D
:1040A00008D176EEC76AF4EEE67AF1EE10FA3FF642
:1040B00079AFF2E7B3F17C5F3FF774AF00208DE793
:1040C00000EE103AE3E7B7EE000AABE5B0EE680A9F
:1040D000A8E5B0EE480AA5E5FFFF7F001872313F62
:1040E0008CBEBF350072313F4CBB31330EEADDB5BB
:1040F00055B38A38610B36BBABAA2A3E0000164383
:104100006042A20D10EE102A22F00041B1F1FF4FE3
:1041100070B502D3A0EE000A70BDB1B3002A04DA74
:1041200070EE407A87EEA70A70BDB1F5000F4FEA36
:10413000E25304D20021100228D501395B1A7F3BDB
:10414000C2F31602D90742F4000248BF52005910C8
:104150000023520019241E464FF0807035189542F6
:10416000DEBF2E18521B1B18013C4FEA42024FEAD9
:104170005000F3D112B1013323F001035B1003F1BE
:104180007C5303EBC15300EE103A70BD5200013175
:10419000D1E7002070470000F7B551EC100BC1F3D8
:1041A0000A54A4F2FF36132E10EE107A0B46024684
:1041B0004FEAD17558DC002E2BDA21F00042024381
:1041C00023D0C1F31302024351421143090B5B0C8C
:1041D00001F400215B0441EA0307314B03EBC50303
:1041E0003946D3E9006710EE100A32463B46FCF729
:1041F00055F8CDE900013B463246DDE90001FCF708
:104200004BF821F0004343EAC57141EC100B03B0B9
:10421000F0BD244C344101EA04070743F5D061089E
:1042200003EA010002430BD023EA01014FF480238B
:10423000132E43FA06F30CBF4FF0004200220B434B
:104240001946174B03EBC505D5E9004510462B462B
:104250002246FCF723F8CDE9000122462B46DDE992
:104260000001FCF719F8D0E7332E08DDB6F5806FB2
:10427000CBD110EE102A0B46FCF710F8C5E7A4F2DC
:1042800013464FF0FF34F4402042BED061080F4285
:104290001FBF4FF0804227EA010132410A43CFE7B6
:1042A000F8670008FFFF0F0010EE103A23F00043FC
:1042B00000EE103A704710EE103A23F00040B0F1D3
:1042C000FF4FACBF00200120704700009FED010AA6
:1042D000704700BF0000C07F08B510EE102A32F012
:1042E00000432DED028BF0EE400A04D0B3F1FF4FF6
:1042F00006D370EE000ABDEC028BB0EE600A08BD7A
:10430000B3F5000F1CD21F4BDFED1F7A984260EE11
:10431000270A10DB10EE902AC2F3C753193B03445F
:10432000FE2B0FDD9FED198AB0EE480A00F034F83D
:1043300060EE080ADFE7DFED167A60EEA70ADAE73B
:10434000DB0DECE7002B06DD22F0FF4242EAC3530F
:1043500000EE903ACFE713F1160F06DA4CF2503325
:104360009842DFDC9FED0A8ADEE7193322F0FF4234
:1043700042EAC353DFED077A07EE103A67EE270AE9
:10438000B9E700BFB03CFFFF0000004CCAF2497122
:104390006042A20D0000003310EE103A10EE902A99
:1043A00023F0004302F00042134300EE103A70473E
:1043B000002100F061BE0000014B1868704700BF8B
:1043C0002800002070B50D4E0D4CA41BA410002534
:1043D000A54209D10B4E0C4C02F0BCF9A41BA41051
:1043E0000025A54205D170BD56F825309847013506
:1043F000EEE756F8253098470135F2E7A86A00083D
:10440000A86A0008A86A0008AC6A000802440346CB
:10441000934200D1704703F8011BF9E70EB400B5D1
:104420009CB04FF402711DABADF8141002900690D1
:104430006FF000410A48049107914FF6FF7153F85D
:10444000042BADF816100068019302A901F018FEC4
:10445000029B00221A701CB05DF804EB03B0704799
:104460002800002070B504460D4645EC104B16465A
:1044700001F012FC51EC100B7EB1C5F30A53C3F1ED
:104480006B03002B09DD1B0503F17F55002405F5A7
:10449000401522462B46FCF7B3F870BD0000000023
:1044A0002DE9F04F9FB098460490002340460C46FB
:1044B00015921A9301F011F907460068FBF790FE78
:1044C0004FF0000A05464FF0000B1994199B1A781B
:1044D0000D2A33D8092A37D2002A3FD00023099366
:1044E000199E3378302B40F003817378582B01D01C
:1044F000782B6BD1099B01931AAB0093CDF8088000
:104500001BABAD4A049819A900F014FE10F0070483
:10451000054605D0062C2BD10136002319960993A8
:10452000159B002B40F09085099BE3B152460BF19F
:10453000004343EC102B1FB0BDE8F08F2B2A06D0B0
:104540002D2A13D0202AC9D101331993BEE70022A6
:1045500009925A1C19925B78002BC1D1159B1994B2
:10456000002B40F06F8552465B46E2E70122EFE701
:104570001A9A3AB135211CA801F07FFC1A990498C7
:1045800001F0FEF8013C042C08D8DFE804F00C032D
:10459000171A0C00DDF870A0DDF874B02907BFD53C
:1045A0004BF0004BBCE71D9B1B9ADDF870A023F479
:1045B000801302F2334243EA025BEFE7DFF804B212
:1045C000ECE76FF0004B4FF0FF3AE7E7199B5A1CFE
:1045D00019925B78302BF9D0002BA1D001234FF03A
:1045E00000090893199B0A93CDF81C90CDF81890F8
:1045F0000A2219980678A6F13003D9B2092979D987
:104600002A46396801F0D6FF002800F08280002099
:10461000069D334602460146652B02D0452B40F0ED
:10462000E88025B910B9089B002B97D00025199C6C
:10463000631C199363782B2B00F0C8802D2B00F09E
:10464000CB8000260596A3F13006092E00F2D0801B
:10465000302B00F0C380A3F13106082E00F2C98090
:10466000A3F1300E199B4FF00A0C1F46199B5E1CDC
:1046700019965B78A3F13008B8F1090F40F2B380C6
:10468000F61B082E44F61F6802DCF045A8BFF04672
:10469000059E0EB1C8F10008002D40F0D080002822
:1046A0007FF43EAF089A002A7FF43AAF00297FF4E6
:1046B00055AF4E2B00F0A68000F39E80492B7FF46F
:1046C0004DAF3E4919A800F065FF00283FF446AF02
:1046D000199B3B49013B19A8199300F05BFF10B9E6
:1046E000199B01331993DFF8DCB04FF0000A17E78C
:1046F000002374E706990829DDBF079902FB0133FF
:10470000079302FB0939069B013001330693199088
:104710006FE7199B5A191992069A5B5D002A48D1D6
:104720001046302B2AD0A3F13102082A00F29184DE
:10473000199A0A92024600200546303B00F1010119
:1047400011D00A4400EB050C29460A2661451BD10D
:104750002844082800F1010525DC07980A2101FBFF
:10476000003307930021199B581C19905B78084669
:10477000A3F130010929E0D901214DE7199B5A1C09
:10478000199201305B78CCE7013101F1FF3EBEF1B7
:10479000080F03DC079F77430797D7E71029D8BF97
:1047A00006FB09F9D2E7102DDCBF0A2101FB09390C
:1047B000D8E70246069DDBE7146800080868000891
:1047C0000B6800080000F07F01212BE70023059310
:1047D000A31C1993A37836E70123F8E7199B5E1C05
:1047E00019965B7834E70CFB0E3EAEF1300E3DE7D8
:1047F00019944FF000084FE7692B3FF462AF6E2B1E
:104800007FF4ACAE884919A800F0C4FE00283FF43C
:10481000A5AE199B1B78282B0ED11CAA834919A879
:1048200000F0CBFE052807D11D9BDDF870A043F0FA
:10483000FF4B4BF4E00B73E6DFF800B255E7069B45
:104840000798002B08BF2B46102D2C46A8EB02081A
:10485000A8BF10240693FBF75DFE092C82468B4609
:1048600013DD734B03EBC40353E91223FBF7C8FEBC
:10487000064648460F46FBF74DFE02460B463046BD
:104880003946FBF70BFD82468B460F2D36DCB8F11F
:10489000000F3FF445AE24DDB8F1160F0BDC644D7C
:1048A00005EBC808D8E9000152465B46FBF7A8FEB5
:1048B00082468B4634E6C5F1250398451EDC5C4CE8
:1048C000C5F10F0504EBC501A8EB050552465B4693
:1048D000D1E9000104EBC504FBF792FED4E9002303
:1048E000E4E718F1160F09DB514DA5EBC808D8E92C
:1048F000002350465946FBF7ADFFD9E72C1B444433
:10490000002C70DD14F00F030AD0494901EBC301FC
:1049100052465B46D1E90001FBF772FE82468B46A8
:1049200034F00F0450D0B4F59A7F23DD00242546DF
:1049300007940694049ADFF808B1222313604FF01D
:10494000000A079B002B3FF4EBAD1A99049800F086
:1049500017FF0699049800F013FF2946049800F009
:104960000FFF0799049800F00BFF2146049800F010
:1049700007FFD5E52F4E002324115046594699468E
:104980003746012C23DC0BB182468B46ABF1547BBE
:1049900007EBC90752465B46D7E90001FBF730FE3B
:1049A00021F000438B460A461B0D23491B058B4211
:1049B0008246BBD8A1F580118B4286BFDFF884B058
:1049C0004FF0FF3A02F1547B002305936DE0E207BC
:1049D00004D5D6E90023FBF713FE012309F10109F1
:1049E00064100836CDE7EFD0644214F00F020AD00D
:1049F0000F4B03EBC20350465946D3E90023FBF7A4
:104A000029FF82468B462411DED01F2C1CDD00249A
:104A1000254607940694049A22234FF0000A4FF08B
:104A2000000B13608DE700BF1168000828680008BC
:104A3000A0680008786800080000A07C0000F8FF6B
:104A40000000F07FFFFFEF7F14F0100318BF6A2310
:104A5000A04E0593504659460023002C00F30681D2
:104A60000BB182468B46059BBBB1CBF30A53C3F116
:104A70006B03002B594610DD1F2B40F30181342BB3
:104A8000DEBF203B4FF0FF3202FA03F34FF0000A83
:104A9000CCBF4FF05C7B03EA010B002200235046A1
:104AA0005946FCF715F80028B1D1079B0093069AE8
:104AB0000A9904982B4600F0B5FE079000283FF4B1
:104AC00035AFB8F1000FC8F10003A8BF00230E9363
:104AD000002428EAE8730F932546079B0498596839
:104AE00000F01AFE069000283FF424AF079B1A69D5
:104AF000023203F10C0192000C3000F002FE1CAAFD
:104B00001BA94BEC10AB0498CDE90AAB01F03AF9C4
:104B10001A9000283FF40EAF0121049800F00EFF18
:104B2000054600283FF406AF1B9E1C9A002EABBF23
:104B30000E9B0F9B0F9FDDF83880ACBF03EB060880
:104B40009F1B059BF61A1644634B013E9E42C2F121
:104B5000360280F2A8809B1B1F2BA2EB03024FF0B2
:104B6000010900F3948009FA03F31493002608EB7B
:104B70000209059BC84517441F444346A8BF4B463E
:104B8000BB42A8BF3B46002BC2BFA9EB0309FF1ADB
:104B9000A8EB03080E9BBBB129461A46049800F007
:104BA00063FF054600283FF4C5AE01461A9A0498F3
:104BB00000F0CDFE089000283FF4BCAE1A9904988E
:104BC00000F0DEFD089B1A93B9F1000F6FDC0F9B1C
:104BD000002B75D1002F08DD3A460699049800F0A5
:104BE00091FF069000283FF4A5AEB8F1000F08DD54
:104BF00029464246049800F085FF054600283FF408
:104C000099AE069A1A99049800F0E7FF0446002826
:104C10003FF490AEC36808930023C360294600F0B8
:104C2000C2FF00285ADA089BE3B9BAF1000F19D184
:104C3000CBF31303B3B92BF000431B0D1B05B3F1EA
:104C4000D66F0FD9636913B92369012B0ADD214699
:104C50000122049800F056FF2946044600F0A3FF05
:104C600000286CDC059B002B76D16EE6E20704D5AC
:104C7000D6E90023FBF7C4FC012364100836ECE6F8
:104C80004FF0FF3202FA03F303EA0A0A05E7C6F11E
:104C90007F4606F57F0606F57B46E23609FA06F6FC
:104CA000CDF8509063E70123002614935FE74A464E
:104CB0001A99049800F026FF1A90002887D139E647
:104CC0000F9A0699049800F0CFFE0690002881D133
:104CD00030E600BF4068000802FCFFFF40F086801D
:104CE000089ACBF3130332B3AD4A9342594652D1DB
:104CF000059B5046D3B1AB4A0A40B2F1D46F4FF096
:104D0000FF3716D8120DC2F16B0307FA03F3834283
:104D100041D1A54A914202D101333FF40BAEA14BE0
:104D20000B4003F5801B4FF0000A9BE74FF0FF3369
:104D3000EDE73B46EBE773BBBAF1000F2BD12BF04D
:104D40000043059A1B0D1B05E2B1B3F1D66F19DCC8
:104D5000B3F15C7F7FF75FAE944B0D9300230C9310
:104D600050465946DDE90C23FBF74AFC82468B4648
:104D700000297FF4EAAD00287FF4E7AD049A2223EE
:104D80001360E2E5A3F580136FEA135B6FEA0B5B38
:104D90004FF0FF3A66E79EB116EA0B0F3FF462AFA1
:104DA000089B059A5046594673B1FFF75BFB0246D4
:104DB0000B46DDE90A01FBF771FA82468B4651E7A3
:104DC000149B13EA0A0FE9E7FFF74CFB02460B4678
:104DD000DDE90A01FBF760FA0022002382468B46D8
:104DE000FBF776FE00287FF416AE3BE72946204607
:104DF00001F017F857EC106B00224FF0804310EED3
:104E0000100A3946FBF778FE002874D0089B002B67
:104E100046D0DFF89C914FF00008654F0026614BAB
:104E20000BEA03031493149A624B9A4240F0CA802F
:104E3000DDE90A23ABF1547B4BEC10ABCDE90C233D
:104E400000F02AFF404653EC102B4946FBF7D8FBF5
:104E500052465B46FBF722FA524A574B0A409A42A7
:104E600082465CD90D9A03F154739A4203D10C9B8C
:104E700001333FF45FADDFF830B14FF0FF3A1A99DC
:104E8000049800F07DFC0699049800F079FC29460E
:104E9000049800F075FC2146049800F071FC1CE6B3
:104EA000BAF1000F18D1CBF31303E3B90022404B42
:104EB00030463946FBF716FED0B930463946002257
:104EC0003E4BFBF79DFB06460F4607F10043169647
:104ED0001793DDE91689A2E7BAF1010F03D1BBF1FF
:104EE000000F3FF498AD4FF00008DFF8D49094E73E
:104EF0000026324FE9E7314B304639460022FBF7B6
:104F00007FFB089B06460F4633B901F10043109022
:104F10001193DDE9108982E7CDE91067F9E701F126
:104F2000547B059B002BAAD12BF000431B0D149A38
:104F30001B059A42D846A2D139463046FBF710FEEF
:104F4000FBF7F8FA0B46024639463046FBF7A4F960
:104F5000089B06460F4633B9BAF1000F03D1CBF3D5
:104F60001303002B68D00AA3D3E900233046394647
:104F7000FBF7B8FD00287FF4E8AC07A3D3E90023D2
:104F800030463946FBF7CCFD00283FF478AFDCE42F
:104F90009535A094FFFFDF3F35E5AF350000E03FDA
:104FA000FFFF0F000000F07FFFFFEF7F0000503990
:104FB0000000F03F0000E07FFFFF9F7C0000E03F2B
:104FC0000000F0BF059B1BB3149BB3F1D46F1FD837
:104FD00025A3D3E9002330463946FBF78DFD90B178
:104FE00039463046FBF7E4FD002808BF0120FBF7F7
:104FF00091FA089B06460F46DBB901F10043129077
:105000001393DDE91289149A09F1D663A3EB02091F
:105010009DED0A0B00F040FE404653EC102B494634
:10502000FBF7EEFADDE90A23FBF738F982468B46F7
:1050300077E7CDE91267E4E70DA3D3E90023FBF797
:1050400051FDA1E700230993159A199B1360FFF7FF
:105050006BBA652B4FF000023FF4B6AB1546012149
:10506000FFF7DCBAAFF300800000C0FFFFFFDF41B5
:105070009535A094FFFFCF3F074B084A10B41C683A
:10508000236A002B08BF13460A46014620465DF8F6
:10509000044BFFF705BA00BF280000208C00002059
:1050A000F0B506694B11B34200F114052BDA11F08B
:1050B0001F0105EB860605EB830208D12946B242A3
:1050C0000B4610D252F8043B41F8043BF7E755F881
:1050D0002340C1F1200E0432CC402B46B24208D30B
:1050E0001C6004B104335B1B9B10036103B9436173
:1050F000F0BD176807FA0EF73C4343F8044B52F82B
:10510000044BCC40EAE72B46EDE7A0F13003092B36
:1051100002D82038C0B27047A0F16103052B01D836
:105120004738F7E7A0F14103052B01D82738F1E70D
:10513000002070472DE9F04F8BB08A4602901698F8
:105140000693904600F0C9FA036803931846FBF7EC
:1051500047F8039B019003444FF0000B13F8013C08
:105160000793DAF8003002331F4613F8010B30289A
:105170006CD0FFF7CAFF044600286AD1019A039950
:10518000384601F017FA002866D1019BF85CFE183A
:10519000FFF7BBFF002862D03346187830281F463F
:1051A00003F10103F9D0FFF7B0FFB0FA80F56D0904
:1051B00034464FF0010B3A46164601323078FFF77D
:1051C000A4FF0028F8D1019A0399304601F0F2F9C2
:1051D00050B954B9019BF418224616460132307872
:1051E000FFF793FF0028F8D10CB1A41BA40033787B
:1051F000502B01D0702B40D173782B2B35D02D2B19
:105200002FD0711C4FF000090878FFF77EFF431E76
:10521000DBB2182B31D8A0F1100211F8010FFFF703
:1052200074FF431EDBB2182B22D9B9F1000F00D056
:1052300052421444CAF800100DB3BBF1000F14BF62
:105240000027062738460BB0BDE8F08F0BF1010BA5
:105250008AE700252C46AEE73E460125C7E704460F
:10526000FBE74FF00109B11CCEE74FF00009FAE768
:105270000A2303FB0202103ACFE73146DAE7F31BB9
:10528000013B2946072B49DC029800F045FA019BB7
:1052900000F114094FF0000BC3F101030546CDF8EE
:1052A0001090DA460893B7423BD3049840F804AB19
:1052B000A0EB0900801028614701504600F0F0FA89
:1052C000D8F800603F1AB74264DDBF1B3946284654
:1052D00000F0EDFD824678B17B1E591103F01F02EC
:1052E0004FF0010A59F821100AFA02F20A4203D0DB
:1052F000534546DC4FF0020A39462846FFF7D0FEF8
:105300003C44D8F808309C4252DD2946029800F00F
:1053100037FA149A00231360A32793E701315B1037
:10532000B0E7731E0593079A16F8013C934218D014
:10533000BBF1200F07D1049BC3F800A004334FF04A
:10534000000A0493D34616F8010CFFF7DEFE00F0C6
:105350000F0000FA0BF04AEA000A0BF1040B059B60
:105360000DE0059B089A13449F42E1D81846019A24
:105370000399099301F01EF9099B0028D8D11E4614
:1053800091E7B91E284600F092FD0028B2D04FF0F8
:10539000030AB1E709DAF71B29463A46029800F0FA
:1053A000B1FBE41B054600F114094FF0000AA8E721
:1053B000D8F8040084426ADA041BA6422EDCD8F82E
:1053C0000C30022B22D0032B24D0012B15D1A64266
:1053D00013D1012E0BDC069AD8F804301360012398
:1053E0002B61C9F80030149B62271D602AE7711EEB
:1053F000284600F05CFD0028EDD12946029800F017
:10540000BFF9149A0023136050271BE7159B002B4C
:10541000E1D0F2E7159B002BDDD1EEE7671EBAF174
:10542000000F31D127B13946284600F040FD8246B1
:105430007A11012307F01F0703FA07F759F8223002
:1054400021461F42284618BF4AF0020A361BFFF7C2
:1054500027FED8F804400227BAF1000F45D0D8F84B
:105460000C30022B15D0032B17D0012B09D11AF0C9
:10547000020F06D0D9F800304AEA030A1AF0010FE9
:105480000ED147F0100730E04FF0010AD0E70127B6
:10549000E2E7159BC3F101031593159B002BF0D098
:1054A000D5F8109005F114034FEA890A03EB0A01BD
:1054B00000201A68B2F1FF3F1CD001321A60022F9F
:1054C00005F1140338D1D8F80020013A96420AD1E8
:1054D0007111012206F01F0653F8213002FA06F678
:1054E0001E4218BF174647F02007149B1D60069BFD
:1054F0001C60A7E643F8040B9942DAD8AB689945DB
:1055000012DB69680298013100F006F92A6902325B
:1055100005F10C01834692000C3000F0F2F82946A8
:10552000029800F02DF95D462B695A1C05EB8303A8
:105530002A6101225A61C2E72A6991450BDA0121E9
:105540002846FFF7ADFDD8F8083001349C423FF7FC
:10555000DCAE0127C7E716F01F06FAD09A44C6F161
:1055600020065AF8040C00F09BF9B042E7DBF0E7A4
:10557000C2F10802920070B5C2F1200643680468C7
:1055800003FA06F52C43D340046040F8043F8842F8
:10559000F4D370BD30B5036811F8014B013314B971
:1055A0000360012030BD1A78A2F14105192D98BF82
:1055B0002032A242F0D0002030BD2DE9F04F0B6820
:1055C00001685F1102EB870713F01F0387B018BF54
:1055D000043700253E1F82469046029347F8045C3C
:1055E000B14634460195AB464A784B1C039342B30F
:1055F000104605910492FFF788FD002843D1049AD4
:105600000599202A18D8019B9B4513DD4C4506D2ED
:10561000072D04DC2A4649462046FFF7A9FF4445EA
:1056200044D90023A4F1040944F8043CCDF804B0A3
:105630004C461D460399D7E7292A4AD10231CAF8B8
:105640000010BBF1000F44D04C4506D2072D04DCFE
:105650002A4649462046FFF78BFF444528D9434652
:1056600054F8042B43F8042BA642F9D2002243F845
:10567000042B9E42FBD233681BB9464527D1012338
:105680003360052026E00135082D0BF1010B06DD06
:105690004445CFD9002344F8043C0125043C22684A
:1056A00000F00F0040EA02102060C3E70825C1E7C0
:1056B000029B002BDFD04FF0FF32C3F1200322FA10
:1056C00003F357F8042C1A4047F8042CD3E7043EA0
:1056D000D1E7042007B0BDE8F08FF030704782B00A
:1056E00001B901A942B14BB113780B601278101CBB
:1056F00018BF012002B070471046FBE76FF00100B1
:10570000F8E710B5431E0A44914200D110BD11F8CC
:10571000014B03F8014FF7E770B5456A04460E46A2
:105720003DB9102000F066FF60624560856005604D
:10573000C560656AEB6883B1636ADB6853F826006D
:10574000B8B9012101FA06F56A1D9200204600F061
:10575000CFFB60B1466085600EE021220421204627
:1057600000F0C6FB636AE860DB68002BE4D1002030
:1057700070BD026843F8262000230361C36070BD3A
:1057800070B5446A06460D463CB9102000F032FF61
:105790007062446084600460C4603DB1736A6A688A
:1057A000DB6853F82210296043F8225070BD2DE9C0
:1057B000F0410D691F4606460C4601F1140E002308
:1057C000DEF8000081B202FB01710F0C000C02FB3D
:1057D000007089B2013301EB00419D424FEA10474E
:1057E0004EF8041BECDCD7B1A3689D4212DB616864
:1057F00030460131FFF790FF2269023204F10C01BB
:10580000804692000C30FFF77CFF21463046FFF7C0
:10581000B7FF444604EB850301355F6125612046EF
:10582000BDE8F0812DE9F8430C4615461F460922D4
:105830000833064693FBF2F3002101229A4220DB53
:105840003046FFF769FF089B4361092D4FF00103C4
:10585000036119DD04F10909C8462C4418F8013B1D
:105860000146303B0A223046FFF7A1FFA045F5D1A3
:10587000A5F108044C442D1B6319BB4207DBBDE8AE
:10588000F88352000131D9E70A340925F3E714F807
:10589000013B0146303B0A223046FFF788FFEBE729
:1058A000020C12040346B2B90304102013F07F4F18
:1058B00004BF1B02083013F0704F04BF1B010430FB
:1058C00013F0404F04BF9B000230002B06DB5B004F
:1058D00003D5013070470020E8E7202070470368B7
:1058E00013F0070201460BD0DA0723D4980749BF0B
:1058F0005B089B0801200B605CBF0B6002207047B7
:1059000098B2A8B91B0C102013F0FF0F04BF1B0A9C
:1059100008301A0704BF1B0904309A0704BF9B080C
:105920000230DA0702D45B0806D001300B60704702
:105930001046E9E7002070472020704710B50C465C
:105940000121FFF7E9FE01224461026110BD2DE94A
:10595000F74F14460A6923699A42B8BF0B46894635
:10596000BCBFA1461C46D9F81070D4F810A0D9F8D5
:105970000830D9F8041007EB0A069E42C8BF01316F
:10598000FFF7CAFE00F1140505EB86082B4600223E
:10599000434516D304F1140209F1140102EB8A0302
:1059A00001EB87070193019C944213460CD8002E0B
:1059B00003DD58F8043D002B54D0066103B0BDE868
:1059C000F08F43F8042BE3E7B3F800A00432BAF1F8
:1059D000000F20D0AE4689464FF0000C59F8044B1A
:1059E000BEF800B0A3B20AFB03B34FEA144BDEF8D3
:1059F000004063444FEA144C0AFB0BC404EB13440D
:105A00009BB243EA04434F454FEA144C4EF8043B23
:105A1000E4D8CEF800C032F8029CB9F1000F1FD0D4
:105A20002B68AE468C464FF0000ABCF80040BEF82A
:105A300002B009FB04B4A2449BB243EA0A434EF805
:105A4000043B5CF8043BBEF800401B0C09FB03431D
:105A500003EB1A4367454FEA134AE6D8CEF8003005
:105A60000435A0E7013EA2E72DE9F843154612F000
:105A7000030206460F4607D0013A214C002354F892
:105A80002220FFF794FE0746AD1035D0746A3CB96A
:105A9000102000F0AFFD7062446084600460C46058
:105AA000D6F82480D8F808404CB940F2712130462D
:105AB000FFF744FF0023C8F80800044603604FF0D6
:105AC0000008EB070AD5394622463046FFF73FFF6C
:105AD000394681463046FFF753FE4F466D100BD0D6
